:1000000071C0000090C000008EC000008CC00000D5
:100010008AC0000088C0000086C0000084C00000C4
:1000200082C0000080C000007EC000007CC00000D4
:100030007AC0000078C0000076C0000074C00000E4
:1000400072C0000070C000006EC000006CC00000F4
:100050006AC0000068C0000066C0000064C0000004
:1000600062C00000D1C700005EC000005CC000009C
:100070005AC0000058C0000056C0000054C0000024
:1000800052C0000050C000004EC000004CC0000034
:100090004AC0000048C0000046C0000044C0000044
:1000A00042C0000040C000003EC000003CC0000054
:1000B0003AC0000038C0000036C0000034C0000064
:1000C00032C0000030C000002EC000002CC0000074
:1000D0002AC0000028C000002DC1000024C000007C
:1000E00022C0000011241FBECFEFD1E2DEBFCDBF82
:1000F00000E00CBF12E0A0E0B2E0E6EEFAE100E0C2
:100100000BBF02C007900D92AE31B107D9F722E0C4
:10011000AEE1B2E001C01D92A837B207E1F70E943C
:10012000B10A0C94710D6CCFEF92FF920F931F9355
:10013000CF93DF9380913E0290913F02009789F523
:10014000C4E0D0E060E070E084EB92E40AE510E007
:100150000F2EF8E8EF2EF12CF02DF701118300831C
:10016000F6E626EE30E0F15020403040E1F727ED92
:1001700033EA42EB51E40E942C0B0E94F80B8B01F6
:10018000072E000C880B990B0E942B0C219729F746
:1001900015B846E686EE90E0415080409040E1F789
:1001A00096C08130910589F5CCE0D0E060E070E048
:1001B0008CE193E40CE910E00F2EF8E8EF2EF12C1F
:1001C000F02DF70111830083F6E626EE30E0F150C2
:1001D00020403040E1F727ED33EA42EB51E40E9442
:1001E0002C0B0E94F80B8B01072E000C880B990B2F
:1001F0000E942B0C219729F715B846E686EE90E071
:10020000415080409040E1F762C08230910589F50D
:10021000C9E0D0E060E070E08DEC93E40AE911E021
:100220000F2EF8E8EF2EF12CF02DF701118300834B
:10023000F6E626EE30E0F15020403040E1F727EDC1
:1002400033EA42EB51E40E942B0B0E94F80B8B0126
:10025000072E000C880B990B0E942B0C219729F775
:1002600015B846E686EE90E0415080409040E1F7B8
:100270002EC0039761F5C6E0D0E06FED70E008E8AE
:1002800010E0F80171836083F6E626EE30E0F1506D
:1002900020403040E1F7072E000C880B990B0E949C
:1002A0002B0C27ED33EA42EB51E40E942B0B0E940A
:1002B000F80B219731F715B846E686EE90E04150ED
:1002C00080409040E1F71092890010928800DF9101
:1002D000CF911F910F91FF90EF900895E0911C0234
:1002E00020911D028E2F922FAC01495C510946339B
:1002F000510598F4E0931A0220931B02875E91093E
:100300004097B8F4E75EF0E0EE0FFF1FEC5AFD4FA8
:1003100081E090E0918380830895893C910548F4C1
:10032000A0911A02A95CA03120F4B0E0A85FBD4FF3
:10033000EC9308951F920F920FB60F9211240BB6F3
:100340000F922F933F934F935F936F937F938F936E
:100350009F93AF93BF93EF93FF938091360190E00B
:1003600090931D0280931C02B9DFFF91EF91BF9122
:10037000AF919F918F917F916F915F914F913F913D
:100380002F910F900BBE0F900FBE0F901F901895DE
:10039000109235018FE58093340188E98093310113
:1003A00086E080933201089580E480937C0087E8A2
:1003B00080937A0010927B00089561302FEF7207CE
:1003C0008207920724F461E07FEF8FEF9FEFDC015B
:1003D000CB018F3F9105A105B10529F024F08FEFE6
:1003E00090E0A0E0B0E0813F2FEF9207A207B207B4
:1003F00054F44098419AB095A095909581959F4F5F
:10040000AF4FBF4F0DC080319105A105B1051CF064
:100410004198409A05C04098419880E090E0DC0106
:1004200090932D0180932C01089561302FEF720776
:100430008207920724F461E07FEF8FEF9FEFDC01EA
:10044000CB018F3F9105A105B10529F024F08FEF75
:1004500090E0A0E0B0E081302FEF9207A207B20752
:1004600024F481E09FEFAFEFBFEF8F3F9105A1052F
:10047000B10529F024F08FEF90E0A0E0B0E0813FDB
:100480002FEF9207A207B20754F44398429AB0950F
:10049000A095909581959F4FAF4FBF4F0DC0803174
:1004A0009105A105B1051CF04298439A05C04298F8
:1004B000439880E090E0DC0190932901809328012B
:1004C000089561302FEF72078207920724F461E0EC
:1004D0007FEF8FEF9FEFDC01CB018F3F9105A105EF
:1004E000B10529F024F08FEF90E0A0E0B0E0813F6B
:1004F0002FEF9207A207B20754F44498459AB0959B
:10050000A095909581959F4FAF4FBF4F0DC0803103
:100510009105A105B1051CF04598449A05C0449881
:10052000459880E090E0DC0190932B0180932A01B4
:1005300008952F923F924F925F926F927F928F9287
:100540009F92AF92BF92CF92DF92EF92FF920F9362
:100550001F93CF93DF93CDB7DEB72C970FB6F894E8
:10056000DEBF0FBECDBF5B011A013A872987BC01F0
:10057000990F880B990B0E942B0C69837A838B83CC
:100580009C83B801110F880B990B0E942B0C6D8373
:100590007E838F8398876627772762197309072ED2
:1005A000000C880B990B0E942B0C2DEC3CEC4CE8BA
:1005B0005FE30E94900B29813A814B815C810E940C
:1005C0002C0B2D813E814F8158850E942C0B905819
:1005D0000E94F80B6B017C017093530260935202EE
:1005E00029853A85B901330F880B990B0E942B0C92
:1005F00069877A878B879C87B5010B2C000C880B49
:10060000990B0E942B0C26E031E845E95FE30E943C
:10061000900B2B013C01B101032C000C880B990BB2
:100620000E942B0C9B01AC01C301B2010E942C0B58
:100630002B013C0120E030E040E250E469817A8106
:100640008B819C810E94900B9B01AC01C301B20184
:100650000E942C0B2B013C0126E031E845E95FE3C9
:1006600069857A858B859C850E94900B9B01AC01E6
:10067000C301B201F1D72B013C0120E030E040E2A0
:1006800050E46D817E818F8198850E94900B9B0143
:10069000AC01C301B201E0D790580E94F80B7093EF
:1006A0004F0260934E02B50162197309072E000CC8
:1006B000880B990B0E942B0C2B013C0120E030E0B1
:1006C00040E150E469817A818B819C810E94900B8A
:1006D0009B01AC01C301B201BED729853A854B8588
:1006E0005C85B9D74B015C0120E030E040E150E48B
:1006F0006D817E818F8198850E94900B9B01AC015A
:10070000C501B401A8D790580E94F80B709351020C
:1007100060935002B601DD0C880B990B18ECE12EAA
:10072000F12C00E010E028E33FEF4FEF5FEF45DEF4
:100730006091500270915102072E000C880B990BAA
:1007400028E33FEF4FEF5FEF70DE60914E02709154
:100750004F02072E000C880B990B28E33FEF4FEF59
:100760005FEFAFDE2C960FB6F894DEBF0FBECDBFA5
:10077000DF91CF911F910F91FF90EF90DF90CF907D
:10078000BF90AF909F908F907F906F905F904F90B1
:100790003F902F900895ECE7F0E09081907E908359
:1007A000EBE7F0E09081977F9083982F9F709830CF
:1007B00048F4ECE7F0E090818770892B80831092F9
:1007C0007B000CC0ECE7F0E080819770982B908361
:1007D000EBE7F0E01082808188608083EAE7F0E058
:1007E000808180648083808184FFFDCF8091780048
:1007F0009091790008958F929F92AF92BF92EF925D
:10080000FF920F931F9349015A019B01AC012819D4
:1008100039094A095B09ADE2B0E00E94450DA80123
:100820009701281939094A095B090E941A0D8901A3
:100830009A01075E1F4F2F4F3F4F073411052105C7
:10084000310554F409311105210531054CF409E154
:1008500010E020E030E004C006E410E020E030E0EA
:100860008091240290912502A0912602B091270246
:100870000597A105B10534F51098119880910402EF
:1008800090910502909307028093060210921F0236
:1008900010921E0210926F0210926E0210922402A9
:1008A0001092250210922602109227021092300216
:1008B00010923102109232021092330200E010E0E6
:1008C000980113C0609104027091050280910602A4
:1008D00090910702861797071CF41098119A05C08B
:1008E0006817790714F41198109A1093AD000093CB
:1008F000AC001F910F91FF90EF90BF90AF909F9031
:100900008F900895EF92FF920F931F93809124028E
:1009100090912502A0912602B0912702BB231CF4DE
:1009200080E090E0DC01BC01CD016F3F71058105E5
:10093000910529F024F06FEF70E080E090E0609383
:100940002002709321028093220290932302E12CD3
:10095000F12C8701EA9420E030E0A9014CDF1F91DF
:100960000F91FF90EF900895CF92DF92EF92FF9258
:1009700020910402309105028091060290910702B5
:10098000281739070CF0B9C080911E0290911F0200
:10099000892B91F481E0FFDEA0E0B0E080932C028F
:1009A00090932D02A0932E02B0932F0281E090E04D
:1009B00090931F0280931E0280910602909107027D
:1009C0004091040250910502FC01E41BF50B69E81B
:1009D00071E0E69F9001E79F300DF69F300D1124E6
:1009E0006901032E000CEE08FF08C0927402D09239
:1009F0007502E0927602F0927702069791F4463003
:100A000051057CF4C9018B549109092E000CAA0BE5
:100A1000BB0B8093740290937502A0937602B093FF
:100A2000770281E0B8DEA0E0B0E0809328029093E6
:100A30002902A0932A02B0932B0240912C025091DC
:100A40002D0260912E0270912F02841B950BA60B34
:100A5000B70B409130025091310260913202709197
:100A60003302480F591F6A1F7B1F853F21E0920701
:100A7000A105B10564F05450610971094093300239
:100A800050933102609332027093330219C08C305C
:100A90009E4FAF4FBF4F4CF0409330025093310206
:100AA00060933202709333020BC05C5F6F4F7F4FD5
:100AB00040933002509331026093320270933302BC
:100AC00040917402509175026091760270917702A4
:100AD0008091300290913102A0913202B0913302A4
:100AE000840F951FA61FB71F8093240290932502A1
:100AF000A0932602B0932702BCC0821793070CF084
:100B0000B8C080911E0290911F02892B91F481E060
:100B100042DEA0E0B0E080932C0290932D02A093DF
:100B20002E02B0932F0281E090E090931F028093F9
:100B30001E0280910402909105024091060250919C
:100B40000702FC01E41BF50B69E871E0E69F9001E8
:100B5000E79F300DF69F300D11246901032E000C24
:100B6000EE08FF08C0927402D0927502E0927602FD
:100B7000F0927702069791F4463051057CF4C90152
:100B80008B549109092E000CAA0BBB0B80937402A5
:100B900090937502A0937602B093770281E0FBDD1B
:100BA000A0E0B0E08093280290932902A0932A024B
:100BB000B0932B0240912C0250912D0260912E0295
:100BC00070912F02841B950BA60BB70B409130023E
:100BD000509131026091320270913302480F591FD7
:100BE0006A1F7B1F853F21E09207A105B10564F0D4
:100BF000545061097109409330025093310260935F
:100C000032027093330219C08C309E4FAF4FBF4FEA
:100C10004CF0409330025093310260933202709353
:100C200033020BC05C5F6F4F7F4F40933002509395
:100C3000310260933202709333028091740290917A
:100C40007502A0917602B0917702409130025091E6
:100C500031026091320270913302841B950BA60B16
:100C6000B70B8093240290932502A0932602B093A1
:100C700027028091280290912902A0912A02B09126
:100C80002B0280932C0290932D02A0932E02B093FE
:100C90002F0238DEFF90EF90DF90CF900895CF9233
:100CA000DF92EF92FF92CF93DF93C0901802D09023
:100CB00019020D2C000CEE08FF08C8E0D2E02881D4
:100CC00030E0A0E9B1E0D2D6A7019601B3D6DA01AF
:100CD000C901885C9109A109B10990934D028093E3
:100CE0004C02298130E0A0E9B1E0C0D6A70196010D
:100CF000A1D6DA01C901885C9109A109B1099093D3
:100D00004B0280934A022A8130E0A6E9B0E0AED6D9
:100D1000A70196018FD6DA01C9018B549109A10967
:100D2000B10990934902809348022B8130E0A0E9F9
:100D3000B1E09CD6A70196017DD6DA01C901885C95
:100D40009109A109B10990934702809346028091CD
:100D5000540290915502019779F480913C02909150
:100D60003D0221E0822790933D0280933C02109245
:100D700055021092540235C180915602909157024B
:100D8000019779F480913A0290913B0221E0822709
:100D900090933B0280933A021092570210925602AF
:100DA00020C180915802909159020197C1F480911D
:100DB00004029091050201968730910529F09093E5
:100DC00005028093040206C081E090E09093050242
:100DD00080930402109259021092580202C180912D
:100DE0005A0290915B02019729F58091020290913D
:100DF00003020196909303028093020280FD07C0D4
:100E000082E090E090933702809336020EC08170AA
:100E10009078992324F401978E6F9F6F0196019724
:100E200021F4109237021092360210925B02109257
:100E30005A02D7C080915C0290915D02019729F51A
:100E40008091020290910302019790930302809394
:100E5000020280FD07C081E090E09093370280930A
:100E600036020EC081709078992324F401978E6F1A
:100E70009F6F0196019721F410923702109236026B
:100E800010925D0210925C02ACC080915E02909163
:100E90005F020197B1F480910402909105020197DD
:100EA00029F0909305028093040206C086E090E04A
:100EB000909305028093040210925F0210925E02EA
:100EC00090C08091600290916102019729F4109284
:100ED00061021092600285C080916202909163026B
:100EE000019729F410926302109262027AC08091F5
:100EF000640290916502019729F4109265021092A4
:100F000064026FC08091660290916702019729F494
:100F1000109267021092660264C0809168029091FC
:100F20006902019729F4109269021092680259C06F
:100F300080916A0290916B02019729F410926B02E2
:100F400010926A024EC080916C0290916D020197DE
:100F500009F5EAD8809138029091390221E0822780
:100F6000909339028093380280913E0290913F0223
:100F700001968430910529F090933F0280933E02C0
:100F800004C010923F0210923E0210926D02109225
:100F90006C0227C080916E0290916F02019711F44C
:100FA000E3DC1FC08091700290917102019779F487
:100FB000809134029091350221E08227909335028E
:100FC0008093340210927102109270020AC08091D4
:100FD000720290917302019721F4109273021092A1
:100FE0007202DF91CF91FF90EF90DF90CF90089544
:100FF0001092C5008FE58093C40088E98093C100FA
:1010000086E08093C20008951F920F920FB60F9250
:1010100011248F939F938091C60090E09093430298
:10102000809342029F918F910F900FBE0F901F905F
:1010300018958F929F92AF92BF92EF92FF920F936B
:101040001F9349015A019B01AC01281939094A092A
:101050005B09A0EFB0E019D5A8019701281939095B
:101060004A095B09E7D4DA01C90188579109A10946
:10107000B10988382FEF9207A207B20724F488E855
:101080009FEFAFEFBFEF89379105A105B10524F0C0
:1010900088E790E0A0E0B0E08B3F2FEF9207A20737
:1010A000B20754F41298139AB095A0959095819533
:1010B0009F4FAF4FBF4F0BC086309105A105B105C3
:1010C0001CF01398129A03C080E090E0DC0190932A
:1010D000A9008093A8001F910F91FF90EF90BF90FF
:1010E000AF909F908F9008958F929F92AF92BF92F2
:1010F000EF92FF920F931F9349015A019B01AC019C
:10110000281939094A095B09A0EFB0E0BED4A8014B
:101110009701281939094A095B098CD4DA01C901F8
:1011200088579109A109B10988382FEF9207A207C2
:10113000B20724F488E89FEFAFEFBFEF893791053E
:10114000A105B10524F088E790E0A0E0B0E08B3F76
:101150002FEF9207A207B20754F41098119AB09596
:10116000A095909581959F4FAF4FBF4F0BC0863094
:101170009105A105B1051CF01198109A03C080E0FB
:1011800090E0DC019093AD008093AC001F910F9133
:10119000FF90EF90BF90AF909F908F9008958F92A7
:1011A0009F92AF92BF92CF92DF92EF92FF920F93F6
:1011B0001F9380913602909137028130910539F466
:1011C00082E390E090930102809300020FC00297A7
:1011D00039F486E990E0909301028093000206C002
:1011E00084E690E0909301028093000220914202F5
:1011F000309143028091000290910102821B930B77
:101200009093450280934402209308018090440209
:1012100090904502092C000CAA08BB08A501940176
:101220002C593F4F4F4F5F4FAEEFB1E02ED428EC1B
:1012300030E040E050E0FED369017A018FEFC81A38
:10124000D108E108F108C501B40105D32FE832EC5B
:1012500045EB5FE38CD3CCD2CB01770FAA0BBB0B52
:101260009C01AD0121503F4F4F4F5F4FA2E8B0E0CE
:101270000CD42EEF31E040E050E0DCD3BA01A901FC
:101280004154510961097109CA014296429738F4E3
:101290008EEE9FEF90934102809340020FC0CA01EF
:1012A0000197429728F0509341024093400206C0B4
:1012B00082E190E09093410280934002B601DD0C00
:1012C000880B990BC8D220E030E040E550E44FD3C2
:1012D0008FD27093450260934402E0914A02F091EC
:1012E0004B02309761F5A0914C02B0914D021097DE
:1012F00061F54091420250914302209100023091E9
:1013000001024217530709F440C040914002509136
:10131000410200E010E020E030E060E070E080E0BA
:1013200090E007D93EC000E010E020E030E040E06F
:1013300050E060E070E080E090E0FBD832C0A09127
:101340004C02B0914D021097A9F040914202509189
:10135000430220910002309101024217530751F0DD
:1013600040914802509149028B019B01BF01CD0180
:10137000E0D817C0409148025091490200E010E0C7
:101380009B01BF01CD01D5D80CC0409142025091C4
:10139000430220910002309101024217530751F796
:1013A000C2CF1F910F91FF90EF90DF90CF90BF9031
:1013B000AF909F908F9008958F929F92AF92BF921F
:1013C000EF92FF920F931F9349015A019B01AC01C9
:1013D000281939094A095B09A0EFB0E056D3A801E2
:1013E0009701281939094A095B0924D3DA01C9018F
:1013F00088579109A109B10988382FEF9207A207F0
:10140000B20724F488E89FEFAFEFBFEF893791056B
:10141000A105B10524F088E790E0A0E0B0E08630B7
:101420009105A105B1051CF02898299A0AC08B3FA7
:101430009F4FAF4FBF4F1CF42998289A02C029989C
:1014400028981F910F91FF90EF90BF90AF909F90C1
:101450008F900895EF92FF920F931F9320DC80915D
:101460003C0290913D02019771F480913A02909173
:101470003B02892B41F493DE11981098129813982F
:101480002898299811C040914802509149026091D2
:101490004A0270914B0200E010E020E030E08091C1
:1014A0004C0290914D0245D880913A0290913B02B6
:1014B000019709F418B88091340290913502813077
:1014C0009105A1F46091460270914702072E000C2D
:1014D000880B990BE12CF12C8701EA9421E03FEF76
:1014E0004FEF5FEFA6DD1198109815C0892B99F486
:1014F0006091480270914902072E000C880B990BED
:10150000E12CF12C8701EA9421E03FEF4FEF5FEFF0
:10151000EBDD129813988091380290913902009770
:10152000A1F41298139860914C0270914D02072E0D
:10153000000C880B990BE12CF12C8701EA9421E037
:101540003FEF4FEF5FEF38DF04C0019711F42898A9
:101550002998809104028BB91F910F91FF90EF9011
:1015600008957894E4E0F1E0808183608083E5E091
:10157000F1E08081836080838DB183608DB98EB10D
:1015800083608EB98FEF87B98093010181B984B9E7
:1015900080930A0180930B018AB980930701E1E8E7
:1015A000F0E090819B619083E0E8F0E090819268A8
:1015B000908385B9E0EAF0E09081996A9083E1EA4E
:1015C000F0E090819D6090838093020110BA85B90C
:1015D000E0E2F1E08081896A8083E1E2F1E08081EC
:1015E0008D608083E0EBF0E0808183688083E1EBB5
:1015F000F0E080818F60808384B5836884BD85B589
:101600008F6085BD0E94D4010E94C801F1DC8FEF7C
:1016100091E190938700809386008AE590E0909313
:101620008900809388002FEF8FE392E02150804063
:101630009040E1F700C0000015B881E0ACD8A0E010
:10164000B0E080932C0290932D02A0932E02B093D1
:101650002F0200DFFECF5058BB27AA270ED04DC166
:101660003ED130F043D120F031F49F3F11F41EF40D
:1016700033C10EF4E095E7FB29C1E92F4FD180F388
:10168000BA17620773078407950718F071F49EF57F
:1016900067C10EF4E0950B2EBA2FA02D0B01B901F6
:1016A00090010C01CA01A0011124FF27591B99F0D8
:1016B000593F50F4503E68F11A16F040A22F232FE4
:1016C000342F4427585FF3CF469537952795A79534
:1016D000F0405395C9F77EF41F16BA0B620B730BDB
:1016E000840BBAF09150A1F0FF0FBB1F661F771F4C
:1016F000881FC2F70EC0BA0F621F731F841F48F401
:10170000879577956795B795F7959E3F08F0B3CF86
:101710009395880F08F09927EE0F97958795089570
:101720000CD0EBC0E3D040F0DAD030F021F45F3FD2
:1017300019F0CCC0511115C1CFC0F0D098F3992346
:10174000C9F35523B1F3951B550BBB27AA27621785
:101750007307840738F09F5F5F4F220F331F441FCA
:10176000AA1FA9F333D00E2E3AF0E0E830D0915002
:101770005040E695001CCAF729D0FE2F27D0660FEF
:10178000771F881FBB1F261737074807AB07B0E82E
:1017900009F0BB0B802DBF01FF2793585F4F2AF044
:1017A0009E3F510568F092C0DCC05F3FECF3983E6D
:1017B000DCF3869577956795B795F7959F5FC9F7A1
:1017C000880F911D9695879597F90895E1E0660F2A
:1017D000771F881FBB1F621773078407BA0720F0A3
:1017E000621B730B840BBA0BEE1F88F7E09508950C
:1017F00004D06894B111B5C0089598D088F09F576F
:1018000090F0B92F9927B751A0F0D1F0660F771F4C
:10181000881F991F1AF0BA95C9F712C0B13081F02C
:101820009FD0B1E008959CC0672F782F8827B85FBC
:1018300039F0B93FCCF3869577956795B395D9F78D
:101840003EF490958095709561957F4F8F4F9F4F97
:101850000895E89409C097FB3EF4909580957095A3
:1018600061957F4F8F4F9F4F9923A9F0F92F96E9EC
:10187000BB279395F695879577956795B795F11161
:10188000F8CFFAF4BB0F11F460FF1BC06F5F7F4FFE
:101890008F4F9F4F16C0882311F096E911C0772310
:1018A00021F09EE8872F762F05C0662371F096E819
:1018B000862F70E060E02AF09A95660F771F881FE8
:1018C000DAF7880F9695879597F9089597F99F67A6
:1018D00080E870E060E008959FEF80EC08950024B8
:1018E0000A941616170618060906089500240A9485
:1018F00012161306140605060895092E0394000C0B
:1019000011F4882352F0BB0F40F4BF2B11F460FF99
:1019100004C06F5F7F4F8F4F9F4F089557FD9058C2
:10192000440F551F59F05F3F71F04795880F97FBA3
:10193000991F61F09F3F79F087950895121613065D
:101940001406551FF2CF4695F1DF08C0161617068C
:101950001806991FF1CF86957105610508940895C1
:10196000E894BB2766277727CB0197F908950BD01A
:10197000C4CFB5DF28F0BADF18F0952309F0A6CF61
:10198000ABCF1124EECFCADFA0F3959FD1F3950F13
:1019900050E0551F629FF001729FBB27F00DB11DF3
:1019A000639FAA27F00DB11DAA1F649F6627B00D83
:1019B000A11D661F829F2227B00DA11D621F739F6C
:1019C000B00DA11D621F839FA00D611D221F749F7A
:1019D0003327A00D611D231F849F600D211D822FC1
:1019E000762F6A2F11249F5750408AF0E1F0882308
:1019F0004AF0EE0FFF1FBB1F661F771F881F915015
:101A00005040A9F79E3F510570F060CFAACF5F3FCD
:101A1000ECF3983EDCF3869577956795B795F79547
:101A2000E7959F5FC1F7FE2B880F911D96958795CF
:101A300097F90895052E97FB16F400940FD057FDE3
:101A400005D02DD007FC02D046F408C05095409533
:101A5000309521953F4F4F4F5F4F0895909580955A
:101A6000709561957F4F8F4F9F4F0895A29FB00152
:101A7000B39FC001A39F700D811D1124911DB29FC2
:101A8000700D811D1124911D0895F0DFA59F900D0B
:101A9000B49F900DA49F800D911D11240895A1E283
:101AA0001A2EAA1BBB1BFD010DC0AA1FBB1FEE1FD8
:101AB000FF1FA217B307E407F50720F0A21BB30B23
:101AC000E40BF50B661F771F881F991F1A9469F79F
:101AD00060957095809590959B01AC01BD01CF01FB
:061AE0000895F894FFCF09
:101AE6006400E8030100010064646464646464647F
:0E1AF6006464646464646464C800FFFFFFFFFE
:00000001FF
