S02B000063617220647269766520776974682063616C6C6962726174696F6E207573696E6720656E636F6465A0
S113000071C000008FC000008DC000008BC00000D4
S113001089C0000087C0000085C0000083C00000C4
S113002081C000007FC000007DC000007BC00000D4
S113003079C0000077C0000075C0000073C00000E4
S113004071C000006FC000006DC000006BC00000F4
S113005069C0000067C0000065C0000063C0000004
S113006061C000005FC000005DC000005BC0000014
S113007059C0000057C0000055C0000053C0000024
S11300801FC200004FC000004DC000004BC0000064
S113009049C0000047C0000045C0000043C0000044
S11300A041C000003FC000003DC000003BC0000054
S11300B039C0000037C0000035C0000033C0000064
S11300C031C000002FC000002DC000002BC0000074
S11300D029C0000027C0000025C0000023C0000084
S11300E021C0000011241FBECFEFD1E2DEBFCDBF7F
S11300F000E00CBF12E0A0E0B2E0E8E2F3E100E0CF
S11301000BBF02C007900D92A830B107D9F722E0C7
S1130110A8E0B2E001C01D92AB37B207E1F7E7D621
S11301200C9492096DCF87B1876F87B988B18078B5
S113013088B9089586E69EE00197F1F7000040989B
S1130140419880E388B9429AEFEFF7E43197F1F7E9
S113015000C000004298E6E6FEE03197F1F70000A7
S11301604098419888B9429AEFEFF7E43197F1F754
S113017000C000004298E6E6FEE03197F1F7000087
S11301804098419888B9429A8FEF97E40197F1F724
S113019000C000004298E6E6FEE03197F1F7000067
S11301A04098419880E288B9429A8FEF97E401978A
S11301B0F1F700C000004298089598B19F7098B973
S11301C098B1282F207F922B98B940984198429A51
S11301D0EFEFF7E43197F1F700C00000429898B1CF
S11301E09F7098B998B18295807F892B88B940987F
S11301F04198429A8FEF97E40197F1F700C000000D
S11302004298089597DF86E69EE00197F1F7000093
S113021088E2D3DF81E0D1DF86E0CFDF8EE0CDDF7F
S113022080E8CBCF089598B19F7098B998B1282FE2
S1130230207F922B98B9409A4198429AEFEFF7E4C5
S11302403197F1F700C00000429898B19F7098B9B7
S113025098B18295807F892B88B9409A4198429AB7
S11302608FEF97E40197F1F700C0000042980895DA
S113027080E8A3CF0895823069F018F4813031F01A
S11302800895833059F0843069F008958FE7860F1C
S113029094CF08958FEB860F90CF089583E9860F4E
S11302A08CCF089583ED860F88CF08950F931F9305
S11302B0CF93DF938A01E901882311F0611102C011
S11302C0D7DF01C0D8DFC530D10509F0D1C098010E
S11302D0329522952F7023273F702327A7E4B3E09C
S11302E0F0D7969587959695879596958795C09618
S11302F0909343028093420296DF980136952795A6
S11303003695279536952795A5ECB0E2DAD7AC015A
S1130310529542954F7045275F704527509351027F
S1130320409350029A01ADECBCECCBD796958795DF
S113033096958795969587959C01220F331F880F74
S1130340991F880F991F880F991F820F931F9A0175
S1130350281B390BC901C0969093720280937102D5
S113036062DF03C0C330D10579F59801369527952E
S113037036952795ABE7B4E1A4D7AC0156954795DC
S113038050935102409350029A01ADECBCEC99D7C2
S11303909695879596958795969587959C01220FB6
S11303A0331F880F991F880F991F880F991F820F79
S11303B0931F9A01281B390BC901C09690936A02B6
S11303C08093690230DF04C0C230D10509F055C002
S11303D09801ADECBCEC75D7AC0156954795569594
S11303E047955695479550935102409350029A0170
S11303F068D79695879596958795969587959C0148
S1130400220F331F880F991F880F991F880F991F78
S1130410820F931F9A01281B390BC901C096909330
S1130420640280936302FFDE9801ADECBCEC49D713
S11304309695879596958795969587959C01220F15
S1130440331F880F991F880F991F880F991F820FD8
S1130450931F9801281B390BC901C0969093700211
S113046080936F02E0DE269764F085E4DCDE09C049
S1130470C430D10509F076CF40CFC130D10599F70A
S1130480D3CFDF91CF911F910F910895E0E9F0E070
S11304908081886A8083E1E9F0E080818D608083D7
S11304A080E091EE909399008093980010929500CB
S11304B010929400E1E7F0E08081866080830895E3
S11304C01F920F920FB60F9211248F939F9381E086
S11304D080933C02109295001092940080E091EE7B
S11304E090939900809398008EB180958EB99F91D6
S11304F08F910F900FBE0F901F901895E0EAF0E0D7
S11305008081896A8083E1EAF0E080818B60808366
S1130510E0E2F1E08081896A8083E1E2F1E08081B8
S11305208B6080838FEF8093020180930B01089589
S113053010BA80E480937C0087E880937A0010925C
S11305407B000895ECE7F0E09081907E9083EBE7E8
S1130550F0E09081977F9083982F9F70983048F4B3
S1130560ECE7F0E090818770892B808310927B0008
S11305700CC0ECE7F0E080819770982B9083EBE758
S1130580F0E01082808188608083EAE7F0E0808177
S113059080648083808184FFFDCF80917800909176
S11305A0790008950F931F9380E0CCDFA0E0B0E0C2
S11305B08093560290935702A0935802B093590225
S11305C0409148025091490260914A0270914B0255
S11305D08C019D01041B150B260B370B409138022F
S11305E05091390260913A0270913B020D30EEEF66
S11305F01E07EFEF2E073E076CF4415051096109C5
S11306007109409338025093390260933A0270930F
S11306103B021FC0043FE1E01E07210531056CF4D5
S1130620400F511F621F731F4093380250933902C9
S113063060933A0270933B020CC04F5F5F4F6F4F61
S11306407F4F409338025093390260933A0270937B
S11306503B028093480290934902A0934A02B093CC
S11306604B0281E06FDFA0E0B0E0809352029093F0
S11306705302A0935402B0935502409177025091D3
S113068078026091790270917A028C019D01041BB9
S1130690150B260B370B40913402509135026091B3
S11306A03602709137020D30EEEF1E07EFEF2E0782
S11306B03E076CF4415051096109710940933402B9
S11306C05093350260933602709337021FC0043F83
S11306D0E1E01E07210531056CF4400F511F621F34
S11306E0731F409334025093350260933602709323
S11306F037020CC04F5F5F4F6F4F7F4F4093340200
S113070050933502609336027093370280937702D8
S113071090937802A0937902B0937A0282E012DF78
S1130720A0E0B0E080935A0290935B02A0935C0235
S1130730B0935D024091730250917402609175020E
S1130740709176028C019D01041B150B260B370B4F
S11307504091300250913102609132027091330223
S11307600D30EEEF1E07EFEF2E073E076CF44150FD
S11307705109610971094093300250933102609329
S11307803202709333021FC0043FE1E01E072105CB
S113079031056CF4400F511F621F731F40933002E8
S11307A05093310260933202709333020CC04F5F56
S11307B05F4F6F4F7F4F40933002509331026093ED
S11307C03202709333028093730290937402A09365
S11307D07502B093760283E0B5DEA0E0B0E08093CA
S11307E04C0290934D02A0934E02B0934F0240915D
S11307F044025091450260914602709147028C0177
S11308009D01041B150B260B370B40912C025091B4
S11308102D0260912E0270912F020D30EEEF1E0713
S1130820EFEF2E073E076CF441505109610971093D
S113083040932C0250932D0260932E0270932F024A
S11308401FC0043FE1E01E07210531056CF4400F91
S1130850511F621F731F40932C0250932D0260930B
S11308602E0270932F020CC04F5F5F4F6F4F7F4F6C
S113087040932C0250932D0260932E0270932F020A
S11308808093440290934502A0934602B09347029A
S11308901F910F910895CF92DF92EF92FF92609192
S11308A008027091090280910A0290910B0239D4D6
S11308B06B017C019B01AC0160913E0270913F028F
S11308C0809140029091410290D320E030E040EAD0
S11308D051E4D7D488234CF080910602909107020A
S11308E044979093070280930602A70196016091B2
S11308F06B0270916C0280916D0290916E0275D3BF
S113090020E030E040EA51E4BCD488234CF08091EC
S11309100402909105024497909305028093040287
S1130920A701960160915F0270916002809161025B
S1130930909162025AD320E030E040EA51E4A1D41D
S113094088234CF080910202909103024497909383
S1130950030280930202A7019601609165027091DF
S1130960660280916702909168023FD320E030E0F4
S113097040EA51E486D488234CF08091000290919F
S1130980010244979093010280930002FF90EF903C
S1130990DF90CF9008954F925F926F927F928F92E3
S11309A09F92AF92BF92CF92DF92EF92FF920F93FA
S11309B01F93CF93DF93CDB7DEB764970FB6F89448
S11309C0DEBF0FBECDBF8091380290913902A09155
S11309D03A02B0913B02BB2384F4B095A095909564
S11309E081959F4FAF4FBF4F809318029093190288
S11309F0A0931A02B0931B0208C08093180290932C
S1130A001902A0931A02B0931B02809134029091B0
S1130A103502A0913602B0913702BB2384F4B0951D
S1130A20A095909581959F4FAF4FBF4F809314022F
S1130A3090931502A0931602B093170208C08093F6
S1130A40140290931502A0931602B093170280919A
S1130A50300290913102A0913202B0913302BB2353
S1130A6084F4B095A095909581959F4FAF4FBF4F5B
S1130A708093100290931102A0931202B093130278
S1130A8008C08093100290931102A0931202B093B5
S1130A90130280912C0290912D02A0912E02B0910C
S1130AA02F02BB2384F4B095A095909581959F4F18
S1130AB0AF4FBF4F80930C0290930D02A0930E0290
S1130AC0B0930F0208C080930C0290930D02A09380
S1130AD00E02B0930F020091180210911902209196
S1130AE01A0230911B02098B1A8B2B8B3C8B809141
S1130AF0280290912902A0912A02B0912B02081B8E
S1130B00190B2A0B3B0BC901B8012FEF33E040E06E
S1130B1050E0BBD3DA01C901880F991FAA1FBB1F7C
S1130B20BA01A901480F591F6A1F7B1FDB01CA01C3
S1130B30880F991FAA1FBB1F880F991FAA1FBB1FCD
S1130B408A019B01080F191F2A1F3B1FC901B80105
S1130B50E8D26D837E838F83988760933E0270937F
S1130B603F028093400290934102C0901402D090BF
S1130B701502E0901602F0901702809124029091E1
S1130B802502A0912602B0912702A7019601281BF5
S1130B90390B4A0B5B0BCA01B9012FEF33E040E07C
S1130BA050E073D3DA01C901880F991FAA1FBB1F34
S1130BB0BA01A901480F591F6A1F7B1FDB01CA0133
S1130BC0880F991FAA1FBB1F880F991FAA1FBB1F3D
S1130BD08A019B01080F191F2A1F3B1FC901B80175
S1130BE0A0D269877A878B879C8760936B02709306
S1130BF06C0280936D0290936E02409010025090AC
S1130C001102609012027090130280912002909160
S1130C102102A0912202B0912302A3019201281B78
S1130C20390B4A0B5B0BCA01B9012FEF33E040E0EB
S1130C3050E02BD3DA01C901880F991FAA1FBB1FEB
S1130C40BA01A901480F591F6A1F7B1FDB01CA01A2
S1130C50880F991FAA1FBB1F880F991FAA1FBB1FAC
S1130C608A019B01080F191F2A1F3B1FC901B801E4
S1130C7058D26D877E878F87988B60935F027093BD
S1130C806002809361029093620280900C029090C3
S1130C900D02A0900E02B0900F0280911C02909160
S1130CA01D02A0911E02B0911F02A5019401281BF0
S1130CB0390B4A0B5B0BCA01B9012FEF33E040E05B
S1130CC050E0E3D2DA01C901880F991FAA1FBB1FA4
S1130CD0BA01A901480F591F6A1F7B1FDB01CA0112
S1130CE0880F991FAA1FBB1F880F991FAA1FBB1F1C
S1130CF08A019B01080F191F2A1F3B1FC901B80154
S1130D0010D269837A838B839C836093650270938A
S1130D106602809367029093680220E030E44CE11D
S1130D2056E46D817E818F819885C4D188236CF0CF
S1130D3080E197E2A0E0B0E080930802909309027A
S1130D40A0930A02B0930B020DC06D817E818F8146
S1130D509885B4D1609308027093090280930A02C3
S1130D6090930B02609108027091090280910A022B
S1130D7090910B02D6D19B01AC0169857A858B8554
S1130D809C8598D188236CF469857A858B859C85AC
S1130D9095D1609308027093090280930A0290939C
S1130DA00B02609108027091090280910A029091ED
S1130DB00B02B7D19B01AC016D857E858F85988927
S1130DC079D188236CF46D857E858F85988976D159
S1130DD0609308027093090280930A0290930B02B5
S1130DE0609108027091090280910A0290910B02AD
S1130DF098D19B01AC0169817A818B819C815AD104
S1130E0088236CF469817A818B819C8157D16093AA
S1130E1008027093090280930A0290930B022989B5
S1130E203A894B895C8920932802309329024093A4
S1130E302A0250932B02C0922402D0922502E092FF
S1130E402602F092270240922002509221026092E0
S1130E5022027092230280921C0290921D02A092A0
S1130E601E02B0921F0217DD64960FB6F894DEBF1F
S1130E700FBECDBFDF91CF911F910F91FF90EF90E7
S1130E80DF90CF90BF90AF909F908F907F906F90A6
S1130E905F904F90089586DB80913C02882331F166
S1130EA07ADD80910602909107029093A9008093C5
S1130EB0A80080910202909103029093AB0080936A
S1130EC0AA0080910402909105029093AD00809352
S1130ED0AC00809100029091010290932B018093C9
S1130EE02A0185E58093080110923C02089510BA06
S1130EF08FEF809307018DB98093010180930A01DC
S1130F0081BB11D97FD9FADA13DBC0DA789480E097
S1130F1019DBA0E0B0E08093480290934902A093CB
S1130F204A02B0934B0281E00DDBA0E0B0E0809375
S1130F30770290937802A0937902B0937A0282E0C8
S1130F4001DBA0E0B0E08093730290937402A0935D
S1130F507502B093760283E0F5DAA0E0B0E0809306
S1130F60440290934502A0934602B093470293DF54
S1130F7060913E0270913F02809140029091410243
S1130F80A2D025E030E0AB0161E081E08FD960912F
S1130F906B0270916C0280916D0290916E0293D0FD
S1130FA025E030E0AB0167E081E080D960915F0229
S1130FB070916002809161029091620284D025E078
S1130FC030E0AB0161E082E071D96091650270911B
S1130FD06602809167029091680275D025E030E046
S1130FE0AB0167E082E062D9C2CF5058BB27AA2781
S1130FF00ED00DC1FED030F003D120F031F49F3F6C
S113100011F41EF4F3C00EF4E095E7FBE9C0E92FF8
S11310100FD180F3BA17620773078407950718F096
S113102071F49EF527C10EF4E0950B2EBA2FA02D76
S11310300B01B90190010C01CA01A0011124FF2781
S1131040591B99F0593F50F4503E68F11A16F0407C
S1131050A22F232F342F4427585FF3CF469537957B
S11310602795A795F0405395C9F77EF41F16BA0B40
S1131070620B730B840BBAF09150A1F0FF0FBB1FEE
S1131080661F771F881FC2F70EC0BA0F621F731F37
S1131090841F48F4879577956795B795F7959E3F94
S11310A008F0B3CF9395880F08F09927EE0F979522
S11310B08795089571D008F481E0089504D0689468
S11310C0B111D9C00895BCD088F09F5790F0B92FC2
S11310D09927B751A0F0D1F0660F771F881F991F89
S11310E01AF0BA95C9F712C0B13081F0C3D0B1E09B
S11310F00895C0C0672F782F8827B85F39F0B93FAB
S1131100CCF3869577956795B395D9F73EF490958A
S11311108095709561957F4F8F4F9F4F0895E89408
S113112009C097FB3EF490958095709561957F4F2B
S11311308F4F9F4F9923A9F0F92F96E9BB279395D9
S1131140F695879577956795B795F111F8CFFAF4E9
S1131150BB0F11F460FF1BC06F5F7F4F8F4F9F4F1A
S113116016C0882311F096E911C0772321F09EE878
S1131170872F762F05C0662371F096E8862F70E0DE
S113118060E02AF09A95660F771F881FDAF7880FB8
S11311909695879597F90895990F0008550FAA0B0E
S11311A0E0E8FEEF16161706E807F907C0F0121676
S11311B01306E407F50798F0621B730B840B950B79
S11311C039F40A2661F0232B242B252B21F40895CE
S11311D00A2609F4A140A6958FEF811D811D08956B
S11311E097F99F6780E870E060E008959FEF80ECD6
S11311F0089500240A941616170618060906089579
S113120000240A9412161306140605060895092EDE
S11312100394000C11F4882352F0BB0F40F4BF2B4D
S113122011F460FF04C06F5F7F4F8F4F9F4F08958D
S113123057FD9058440F551F59F05F3F71F0479583
S1131240880F97FB991F61F09F3F79F08795089568
S1131250121613061406551FF2CF4695F1DF08C087
S1131260161617061806991FF1CF869571056105A4
S113127008940895E894BB2766277727CB0197F94C
S113128008958ADF08F48FEF0895052E97FB16F46E
S113129000940FD057FD05D023D007FC02D046F4AC
S11312A008C050954095309521953F4F4F4F5F4F63
S11312B0089590958095709561957F4F8F4F9F4FBE
S11312C00895A29FB001B39FC001A39F700D811D1B
S11312D01124911DB29F700D811D1124911D08953B
S11312E0A1E21A2EAA1BBB1BFD010DC0AA1FBB1F26
S11312F0EE1FFF1FA217B307E407F50720F0A21B98
S1131300B30BE40BF50B661F771F881F991F1A9404
S113131069F760957095809590959B01AC01BD012E
S10B1320CF010895F894FFCFFA
S10B1328C800C800C800C80099
S9030000FC
