:100000000C9472000C9486000C9486000C9486006C
:100010000C9486000C9486000C9486000C94860048
:100020000C9486000C9486000C9486000C94860038
:100030000C9486000C9486000C9486000C94860028
:100040000C9486000C9486000C9486000C94860018
:100050000C9486000C9486000C9486000C94860008
:100060000C9486000C9486000C9486000C948600F8
:100070000C9486000C9486000C9486000C948600E8
:100080000C9486000C9486000C9486000C948600D8
:100090000C9486000C9486000C9486000C948600C8
:1000A0000C9486000C9486000C9486000C948600B8
:1000B0000C9486000C9486000C9486000C948600A8
:1000C0000C9486000C9486000C9486000C94860098
:1000D0000C9486000C9486000C9486000C94860088
:1000E0000C94860011241FBECFEFD1E2DEBFCDBF3E
:1000F00000E00CBF22E0A0E0B2E001C01D92A431FC
:10010000B207E1F70E9466010C94B9010C9400005B
:10011000E0E9F0E0808181688083E1E9F0E08081BE
:100120008D6080830895EAE7F0E0108280E280939A
:100130007C0080E880BF86E88083089587708062B5
:1001400080937C0080917A00806480937A00809113
:100150007A0084FFFCCF8091790090917A009061C1
:1001600090937A000895CF92DF92EF92FF920F93CF
:100170001F9388E00E949E0090E0A0E0B0E0809392
:10018000040290930502A0930602B09307024091E7
:1001900008025091090260910A0270910B026C01F1
:1001A0007D01C41AD50AE60AF70A00910C021091E3
:1001B0000D0220910E0230910F020C0D1D1D2E1DFF
:1001C0003F1DEAE6CE16EFEFDE06EE06FE066CF405
:1001D000481B590B6A0B7B0B400F511F621F731F8B
:1001E0004F5F5F4F6F4F7F4F1BC0E7E9CE16D104C3
:1001F000E104F1044CF400930C0210930D022093DF
:100200000E0230930F0214C0481B590B6A0B7B0B74
:10021000400F511F621F731F41505109610971093D
:1002200040930C0250930D0260930E0270930F02E4
:100230008093080290930902A0930A02B0930B02E4
:100240001F910F91FF90EF90DF90CF90089580B1B4
:10025000813019F080B1823011F488B9089580B1ED
:10026000803211F4289A089580B1803409F42898D6
:10027000089580B1843069F481E085B988EC90E01C
:10028000909399008093980080E79EEFAFEFBFEFC7
:100290000FC080B18830A9F482E085B98EE190E08A
:1002A000909399008093980080E991E0A0E0B0E0FD
:1002B0008093000290930102A0930202B093030284
:1002C000089580B1803109F415B8089511B81092DD
:1002D00007018FEF8DB98EB984B987B98AB90E94A9
:1002E00088000E94930088E00E949E0090E0A0E0B9
:1002F000B0E08093080290930902A0930A02B093A1
:100300000B020E94B3000E9427010E9439018091D4
:10031000000290910102A0910202B091030240916B
:100320000C0250910D0260910E0270910F02841B1D
:10033000950BA60BB70B8093100290931102A0931C
:100340001202B0931302892B8A2B8B2BD1F615B88E
:100350001092000210920102109202021092030207
:1003600010920C0210920D0210920E0210920F02C7
:06037000C8CFF894FFCF96
:00000001FF
