S0150000785F776865656C5F64726976652E73726563AA
S113000071C0000083C100003DC1000007C20000B0
S1130010C1C1000086C0000084C0000082C000008E
S113002080C000007EC000007CC000007AC00000D8
S113003078C0000076C0000074C0000072C00000E8
S113004070C000006EC000006CC000006AC00000F8
S113005068C0000066C0000064C0000062C0000008
S113006060C000005EC000005CC000005AC0000018
S113007058C0000056C0000054C0000052C0000028
S1130080D6C200004EC000004CC000004AC00000B0
S113009048C0000046C0000044C0000042C0000048
S11300A040C000003EC000003CC000003AC0000058
S11300B038C0000036C0000034C0000032C0000068
S11300C030C000002EC000002CC000002AC0000078
S11300D028C0000026C0000024C0000022C0000088
S11300E020C0000011241FBECFEFD1E2DEBFCDBF80
S11300F000E00CBF12E0A0E0B2E0E0E5F6E000E0D2
S11301000BBF02C007900D92A230B107D9F722E0CD
S1130110A2E0B2E001C01D92A633B207E1F775D2A6
S113012095C26ECFE0E9F0E08081886A8083E1E9DE
S1130130F0E080818D60808380E890E7909399005F
S1130140809398001092950010929400E1E7F0E0FB
S113015080818660808308959B01052E000C660BC8
S1130160770B092E000CAA0BBB0B481759076A071B
S11301707B075CF0A901330F660B770B481759070F
S11301806A077B0714F4AC01BD01463051054CF0FD
S1130190E8E0F1E080818160808380818D7F8083CD
S11301A00FC04B3F8FEF58075CF4E8E0F1E080812B
S11301B08260808380818E7F80835195419551092F
S11301C05093A9004093A80008959C01860F971F9F
S11301D0840F951F9093310280933002FB01E21B40
S11301E0F30BE40FF51FF0932B02E0932A02F901BD
S11301F0E61BF70BE40FF51FF0932902E0932802A6
S1130200461B570B421B530B509325024093240269
S11302104FEF50E061E07FEF9FDF4FEF50E061E090
S11302207FEF80912A0290912B0296DF4FEF50E0EE
S113023061E07FEF80912802909129028DDF4FEFDA
S113024050E061E07FEF809124029091250284CFF9
S113025008958DB38F618DBBE9E6F0E080818565FB
S11302608083EAE6F0E08081826080830895E0EA9A
S1130270F0E08081896A8083E1EAF0E080818B602C
S1130280808308951F920F920FB60F9211248F93BB
S11302909F93499B1BC081E080930B0280910A02CB
S11302A081110AC0809104029091050201979093F4
S11302B005028093040223C08091040290910502F8
S11302C00196909305028093040219C010920B02C8
S11302D080910A0281110AC0809104029091050262
S11302E00196909305028093040209C08091040250
S11302F090910502019790930502809304029F91C7
S11303008F910F900FBE0F901F9018951F920F9210
S11303100FB60F9211248F939F93489B1BC081E0CB
S113032080930A0280910B0281110AC08091040219
S1130330909105020196909305028093040223C0D4
S11303408091040290910502019790930502809395
S1130350040219C010920A0280910B0281110AC092
S11303608091040290910502019790930502809375
S1130370040209C0809104029091050201969093B1
S11303800502809304029F918F910F900FBE0F90EE
S11303901F9018951F920F920FB60F9211248F93EE
S11303A09F934B9B1BC081E08093090280910802BC
S11303B081110AC0809102029091030201979093E7
S11303C003028093020223C08091020290910302EF
S11303D00196909303028093020219C010920902BD
S11303E08091080281110AC0809102029091030257
S11303F00196909303028093020209C08091020245
S113040090910302019790930302809302029F91BB
S11304108F910F900FBE0F901F9018951F920F92FF
S11304200FB60F9211248F939F934A9B1BC081E0B8
S1130430809308028091090281110AC0809102020E
S1130440909103020196909303028093020223C0C9
S1130450809102029091030201979093030280938A
S1130460020219C0109208028091090281110AC087
S1130470809102029091030201979093030280936A
S1130480020209C0809102029091030201969093A6
S11304900302809302029F918F910F900FBE0F90E1
S11304A01F90189580910602811108C080911A024C
S11304B090911B02909319028093180280911E025E
S11304C090911F0220911A0230911B02821B930B00
S11304D09C01245B3109253B310538F48856914051
S11304E0909317028093160208959C0128593E4F59
S11304F0253B310528F09093170280931602089546
S113050088599E4F9093170280931602089584B1E0
S1130510887F84B9239A8CB580648CBD08950DB40A
S113052007FEFDCF8EB590E09093210280932002C8
S11305300895F5DF80931C02F2DF80931D02811180
S11305400CC080911C02882391F090E081509F4F51
S113055090931B0280931A020FC090911C02911178
S11305600BC090E090931B0280931A0205C0109276
S11305701B0210921A020FC080911A0290911B0262
S11305808936914040F08091120290911302909329
S11305901B0280931A0280911A0290911B0290937D
S11305A01302809312020895C4DF7CDF20911602A7
S11305B0309117028091000290910102289FA001BE
S11305C0299F500D389F500D1124509311024093D0
S11305D0100260910C0270910D02269FC001279FAA
S11305E0900D369F900D112420910E0230910F0230
S11305F0820F931F90930F0280930E02840F951F16
S11306009093150280931402089581DF8BDD21DE1F
S11306102EDE809107028111C7DF409116025091AE
S1130620170260E070E084E690E0CFDDEECF1F9229
S11306300F920FB60F9211248F9381E080930702DB
S11306408F910F900FBE0F901F901895F894FFCFC5
S10506500300A1
S9030000FC
